:03000000020030CB
:03000B000200519F
:0300230002006870
:0F0030007581357598D0758921758700758DFD9F
:10003F00D28E75800075A890C299C2B2A28092002C
:0E004F0080FAC28CC28DC3A20040079014FF3D
:10005D0012013832900FFF12013832C28D12009A00
:10006D007950E7B428201200DBE540B50E18E541C4
:0F007D00B50D1312010F758CFF758A0075A892CF
:10008C00C28DD28CD2B232C2B27950780032795051
:0F009C007800E599C29812011FC0E0E542701785
:1000AB00D0E0F70809758CF9758AD0D28C308D02A7
:1000BB0080072098DE80F6D0E0C28D191887401992
:1000CB0018874119758CF7758AB8D28C308DFD2243
:0F00DB00E8FB750DFF750EFF7950C000E7650D4E
:0F00EA00F50D7E08E50EC313F50EE50D13F50DAC
:1000F900500CE50D6401F50DE50E64A0F50EDEE585
:1001090009DBDBD000227955E775F00884FCE5F0BE
:10011900B40001220C22A29A9220A2D09228C0E017
:0F012900E524B52506D0E0754200227542FF227D
:100138008009A2D0929BF5993099FDC299A37400C9
:0A01480093B403EE75A890C2B22232
:07100000280101019814030F
:071500002801010059D4038A
:00000001FF
