:03000000020030CB
:03000B0002004DA3
:0300230002006375
:0E003000C2B27581657598D0758921758700FB
:0F003E00758DFDD28E75A890C2998563A080FB49
:0F004D00C28CC28DE5636007900FFF1201413234
:0F005C009011FF12014132C28D1200977950E7C7
:10006B00B430221200D8E540B50E1AE541B50D1596
:10007B0012010C6010758CFF758A0075A892C28DE9
:10008B00D28CD2B232C2B279507800327950780029
:10009B00E599C298120128C0E0E5427017D0E0F74D
:0F00AB000809758CF9758AD0D28C308D028007C8
:0F00BA002098DE80F6D0E0C28D19188740191803
:1000C900874119758CF7758AB8D28C308DFD22E875
:1000D900FB750DFF750EFF7950C000E7650DF50D35
:0F00E9007E08E50EC313F50EE50D13F50D500C53
:0F00F800E50D6401F50DE50E64A0F50EDEE509DA
:10010700DBDBD000227951E7B4061309E7F5600974
:10011700E7F56109E7F56209E7F56374FF22740003
:1001270022A29A9220A2D09228C0E0E524B5250603
:10013700D0E0754200227542FF228009A2D0929B2F
:0E014700F5993099FDC299A3740093B403EEAC
:0601550075A890C2B22261
:091000003006000100011DEB03A4
:09120000300600010000DC2B03A4
:00000001FF
