:03000000020030CB
:03000B000200668A
:030023000200BA1E
:0F0030007564007567007570507581357598D0CF
:0E003F00758921758700758DFDD28E758CF147
:10004D00758A98D28C740075A89275200075210060
:10005D00752200C299D2B280FEE564B4FF028037EA
:10006D00E570C3B45002800EB453028014B4510233
:10007D00801A4023802CC28CC28D900FFF1202B1CA
:10008D0032C28CC28D9012FF1202B132C28CC28D5F
:0E009D009010FF1202B132C28CC28D9014FF7F
:0F00AB001202B132C28CC28D9011FF1202B1321B
:1000BA0075A890C28CC28D12016E7950E7B4201ACD
:1000CA00120264E540B50E0FE541B50D0A1201B5FD
:1000DA0075705312015A3202015AB424141202647E
:1000EA00E540B50E6BE541B50D661201C912015A1C
:0E00FA0032B42814120264E540B50E54E541FC
:10010800B50D4F1201FB12015A32E555601A7950AC
:0E011800E7B4302E120264E540B50E36E54124
:10012600B50D3112021A12015A327950E7B4301461
:10013600120264E540B50E1CE541B50D1712023FEB
:0F01460012015A32758CFF758AF075A892C28D1E
:0E015500D28CD2B2327950780075A892C28D49
:0F016300758CF1758A98D2B2D28C2279507800BF
:0F017200C28CE599C298120298C0E0E54270175E
:10018100D0E0F70809758CF9758AD0D28C308D02D0
:0F01910080072098DC80F6D0E0C28DC28C191850
:0F01A00087401918874119C28D758CF7758AB879
:1001AF00D28C308DFD227951E7B4010A09E7F5634E
:1001BF0009E7C3F5202212015A227951E7B401F65B
:1001CF0009E7F56309E7C3A2E08200B35007C2A0B5
:0F01DF007570FF8014B52205757051800C4005B6
:1001EE007570008005C2A07570FFF522227951E767
:0F01FE00B401C409E7F56309E7C3A2E08200B3C7
:10020D00400575700080037570FFF521227951E767
:0F021D00B4061B09E7B4001609E7B4011109E79D
:0F022C00B4000C09E7B401077564007570502227
:10023B007564FF227951E7B4061B09E7B400160970
:0E024B00E7B4011109E7B4000C09E7B400079D
:10025900756700757050227567FF22E8FB750DFF01
:10026900750EFF7950C000E7650DF50D7E08E50EA6
:0F027900C313F50EE50D13F50D500CE50D6401E3
:10028800F50DE50E64A0F50EDEE509D8DBD00022F9
:0F029800A29A9220A2D09228C0E0E524B52506B4
:1002A700D0E0754200227542FF228009A2D0929BBE
:1002B700F5993099FDC299A3740093B403EEC299DE
:0B02C700758C00758A00D28CC2B22238
:09100000200100200001FAB103F7
:09110000280100200001FBF903A5
:09120000300600010000DC2B03A4
:09130000240100200001FB35036B
:091500003006000100011DEB039F
:00000001FF
